{
  "_format": "hh-sol-artifact-1",
  "contractName": "TodoContract",
  "sourceName": "contracts/Todo.sol",
  "abi": [
    {
      "inputs": [],
      "stateMutability": "nonpayable",
      "type": "constructor"
    },
    {
      "anonymous": false,
      "inputs": [
        {
          "indexed": false,
          "internalType": "uint256",
          "name": "",
          "type": "uint256"
        },
        {
          "indexed": false,
          "internalType": "string",
          "name": "",
          "type": "string"
        },
        {
          "indexed": false,
          "internalType": "string",
          "name": "",
          "type": "string"
        }
      ],
      "name": "TaskCreated",
      "type": "event"
    },
    {
      "inputs": [
        {
          "internalType": "string",
          "name": "_content",
          "type": "string"
        },
        {
          "internalType": "string",
          "name": "_author",
          "type": "string"
        }
      ],
      "name": "createTodo",
      "outputs": [],
      "stateMutability": "nonpayable",
      "type": "function"
    },
    {
      "inputs": [
        {
          "internalType": "uint256",
          "name": "id",
          "type": "uint256"
        }
      ],
      "name": "getTodo",
      "outputs": [
        {
          "internalType": "uint256",
          "name": "",
          "type": "uint256"
        },
        {
          "internalType": "uint256",
          "name": "",
          "type": "uint256"
        },
        {
          "internalType": "string",
          "name": "",
          "type": "string"
        },
        {
          "internalType": "string",
          "name": "",
          "type": "string"
        },
        {
          "internalType": "bool",
          "name": "",
          "type": "bool"
        }
      ],
      "stateMutability": "view",
      "type": "function"
    }
  ],
  "bytecode": "0x608060405234801561001057600080fd5b50600060018190555061091f806100286000396000f3fe608060405234801561001057600080fd5b50600436106100365760003560e01c80633380b99f1461003b578063dd68afb614610057575b600080fd5b610055600480360381019061005091906104b3565b61008b565b005b610071600480360381019061006c919061051f565b6101a1565b604051610082959493929190610627565b60405180910390f35b6040518060a00160405280600180546100a491906106fa565b815260200142815260200183815260200182815260200160001515815250600080600154815260200190815260200160002060008201518160000155602082015181600101556040820151816002019080519060200190610106929190610393565b506060820151816003019080519060200190610123929190610393565b5060808201518160040160006101000a81548160ff0219169083151502179055509050507f3aa7994277fd1283665573abffa8b1ef095947ad76908721a82ac157e8953d5a600154838360405161017c939291906105e2565b60405180910390a1600180600082825461019691906106fa565b925050819055505050565b6000806060806000856000806000838152602001908152602001600020600001541415610203576040517f08c379a00000000000000000000000000000000000000000000000000000000081526004016101fa906105c2565b60405180910390fd5b86600080898152602001908152602001600020600101546000808a81526020019081526020016000206002016000808b81526020019081526020016000206003016000808c815260200190815260200160002060040160009054906101000a900460ff16828054610273906107a8565b80601f016020809104026020016040519081016040528092919081815260200182805461029f906107a8565b80156102ec5780601f106102c1576101008083540402835291602001916102ec565b820191906000526020600020905b8154815290600101906020018083116102cf57829003601f168201915b505050505092508180546102ff906107a8565b80601f016020809104026020016040519081016040528092919081815260200182805461032b906107a8565b80156103785780601f1061034d57610100808354040283529160200191610378565b820191906000526020600020905b81548152906001019060200180831161035b57829003601f168201915b50505050509150955095509550955095505091939590929450565b82805461039f906107a8565b90600052602060002090601f0160209004810192826103c15760008555610408565b82601f106103da57805160ff1916838001178555610408565b82800160010185558215610408579182015b828111156104075782518255916020019190600101906103ec565b5b5090506104159190610419565b5090565b5b8082111561043257600081600090555060010161041a565b5090565b6000610449610444846106ad565b610688565b90508281526020810184848401111561046157600080fd5b61046c848285610766565b509392505050565b600082601f83011261048557600080fd5b8135610495848260208601610436565b91505092915050565b6000813590506104ad816108d2565b92915050565b600080604083850312156104c657600080fd5b600083013567ffffffffffffffff8111156104e057600080fd5b6104ec85828601610474565b925050602083013567ffffffffffffffff81111561050957600080fd5b61051585828601610474565b9150509250929050565b60006020828403121561053157600080fd5b600061053f8482850161049e565b91505092915050565b61055181610750565b82525050565b6000610562826106de565b61056c81856106e9565b935061057c818560208601610775565b61058581610898565b840191505092915050565b600061059d601d836106e9565b91506105a8826108a9565b602082019050919050565b6105bc8161075c565b82525050565b600060208201905081810360008301526105db81610590565b9050919050565b60006060820190506105f760008301866105b3565b81810360208301526106098185610557565b9050818103604083015261061d8184610557565b9050949350505050565b600060a08201905061063c60008301886105b3565b61064960208301876105b3565b818103604083015261065b8186610557565b9050818103606083015261066f8185610557565b905061067e6080830184610548565b9695505050505050565b60006106926106a3565b905061069e82826107da565b919050565b6000604051905090565b600067ffffffffffffffff8211156106c8576106c7610869565b5b6106d182610898565b9050602081019050919050565b600081519050919050565b600082825260208201905092915050565b60006107058261075c565b91506107108361075c565b9250827fffffffffffffffffffffffffffffffffffffffffffffffffffffffffffffffff038211156107455761074461080b565b5b828201905092915050565b60008115159050919050565b6000819050919050565b82818337600083830152505050565b60005b83811015610793578082015181840152602081019050610778565b838111156107a2576000848401525b50505050565b600060028204905060018216806107c057607f821691505b602082108114156107d4576107d361083a565b5b50919050565b6107e382610898565b810181811067ffffffffffffffff8211171561080257610801610869565b5b80604052505050565b7f4e487b7100000000000000000000000000000000000000000000000000000000600052601160045260246000fd5b7f4e487b7100000000000000000000000000000000000000000000000000000000600052602260045260246000fd5b7f4e487b7100000000000000000000000000000000000000000000000000000000600052604160045260246000fd5b6000601f19601f8301169050919050565b7f546f646f2077697468207468617420646f6573206e6f74206578697374000000600082015250565b6108db8161075c565b81146108e657600080fd5b5056fea2646970667358221220f62bc765e5df029b6686a0a03bfda1be7cc6fca2be457a1ecbb49b110e24dcd464736f6c63430008040033",
  "linkReferences": {},
  "deployedLinkReferences": {}
}