{
  "_format": "hh-sol-artifact-1",
  "contractName": "TodoContract",
  "sourceName": "contracts/Todo.sol",
  "abi": [
    {
      "inputs": [],
      "stateMutability": "nonpayable",
      "type": "constructor"
    },
    {
      "inputs": [
        {
          "internalType": "string",
          "name": "_content",
          "type": "string"
        },
        {
          "internalType": "string",
          "name": "_author",
          "type": "string"
        }
      ],
      "name": "createTodo",
      "outputs": [],
      "stateMutability": "nonpayable",
      "type": "function"
    },
    {
      "inputs": [
        {
          "internalType": "uint256",
          "name": "id",
          "type": "uint256"
        }
      ],
      "name": "getTodo",
      "outputs": [
        {
          "internalType": "uint256",
          "name": "",
          "type": "uint256"
        },
        {
          "internalType": "uint256",
          "name": "",
          "type": "uint256"
        },
        {
          "internalType": "string",
          "name": "",
          "type": "string"
        },
        {
          "internalType": "string",
          "name": "",
          "type": "string"
        },
        {
          "internalType": "bool",
          "name": "",
          "type": "bool"
        }
      ],
      "stateMutability": "view",
      "type": "function"
    },
    {
      "inputs": [],
      "name": "getTodos",
      "outputs": [
        {
          "components": [
            {
              "internalType": "uint256",
              "name": "id",
              "type": "uint256"
            },
            {
              "internalType": "uint256",
              "name": "date",
              "type": "uint256"
            },
            {
              "internalType": "string",
              "name": "content",
              "type": "string"
            },
            {
              "internalType": "string",
              "name": "author",
              "type": "string"
            },
            {
              "internalType": "bool",
              "name": "isCompleted",
              "type": "bool"
            }
          ],
          "internalType": "struct TodoContract.Todo[]",
          "name": "",
          "type": "tuple[]"
        }
      ],
      "stateMutability": "view",
      "type": "function"
    }
  ],
  "bytecode": "0x608060405234801561001057600080fd5b506000600181905550610c68806100286000396000f3fe608060405234801561001057600080fd5b50600436106100415760003560e01c80633380b99f14610046578063c33926cb14610062578063dd68afb614610080575b600080fd5b610060600480360381019061005b91906106e4565b6100b4565b005b61006a6101a3565b604051610077919061092d565b60405180910390f35b61009a60048036038101906100959190610750565b610355565b6040516100ab95949392919061094f565b60405180910390f35b60006040518060a00160405280600180546100cf9190610a6c565b8152602001428152602001848152602001838152602001600015158152509080600181540180825580915050600190039060005260206000209060050201600090919091909150600082015181600001556020820151816001015560408201518160020190805190602001906101469291906105c4565b5060608201518160030190805190602001906101639291906105c4565b5060808201518160040160006101000a81548160ff021916908315150217905550505060018060008282546101989190610a6c565b925050819055505050565b60606000805480602002602001604051908101604052809291908181526020016000905b8282101561034c57838290600052602060002090600502016040518060a0016040529081600082015481526020016001820154815260200160028201805461020e90610b1a565b80601f016020809104026020016040519081016040528092919081815260200182805461023a90610b1a565b80156102875780601f1061025c57610100808354040283529160200191610287565b820191906000526020600020905b81548152906001019060200180831161026a57829003601f168201915b505050505081526020016003820180546102a090610b1a565b80601f01602080910402602001604051908101604052809291908181526020018280546102cc90610b1a565b80156103195780601f106102ee57610100808354040283529160200191610319565b820191906000526020600020905b8154815290600101906020018083116102fc57829003601f168201915b505050505081526020016004820160009054906101000a900460ff161515151581525050815260200190600101906101c7565b50505050905090565b60008060608060008560008781548110610398577f4e487b7100000000000000000000000000000000000000000000000000000000600052603260045260246000fd5b906000526020600020906005020160010154600088815481106103e4577f4e487b7100000000000000000000000000000000000000000000000000000000600052603260045260246000fd5b90600052602060002090600502016002016000898154811061042f577f4e487b7100000000000000000000000000000000000000000000000000000000600052603260045260246000fd5b906000526020600020906005020160030160008a8154811061047a577f4e487b7100000000000000000000000000000000000000000000000000000000600052603260045260246000fd5b906000526020600020906005020160040160009054906101000a900460ff168280546104a590610b1a565b80601f01602080910402602001604051908101604052809291908181526020018280546104d190610b1a565b801561051e5780601f106104f35761010080835404028352916020019161051e565b820191906000526020600020905b81548152906001019060200180831161050157829003601f168201915b5050505050925081805461053190610b1a565b80601f016020809104026020016040519081016040528092919081815260200182805461055d90610b1a565b80156105aa5780601f1061057f576101008083540402835291602001916105aa565b820191906000526020600020905b81548152906001019060200180831161058d57829003601f168201915b505050505091509450945094509450945091939590929450565b8280546105d090610b1a565b90600052602060002090601f0160209004810192826105f25760008555610639565b82601f1061060b57805160ff1916838001178555610639565b82800160010185558215610639579182015b8281111561063857825182559160200191906001019061061d565b5b509050610646919061064a565b5090565b5b8082111561066357600081600090555060010161064b565b5090565b600061067a610675846109d5565b6109b0565b90508281526020810184848401111561069257600080fd5b61069d848285610ad8565b509392505050565b600082601f8301126106b657600080fd5b81356106c6848260208601610667565b91505092915050565b6000813590506106de81610c1b565b92915050565b600080604083850312156106f757600080fd5b600083013567ffffffffffffffff81111561071157600080fd5b61071d858286016106a5565b925050602083013567ffffffffffffffff81111561073a57600080fd5b610746858286016106a5565b9150509250929050565b60006020828403121561076257600080fd5b6000610770848285016106cf565b91505092915050565b60006107858383610892565b905092915050565b600061079882610a16565b6107a28185610a39565b9350836020820285016107b485610a06565b8060005b858110156107f057848403895281516107d18582610779565b94506107dc83610a2c565b925060208a019950506001810190506107b8565b50829750879550505050505092915050565b61080b81610ac2565b82525050565b61081a81610ac2565b82525050565b600061082b82610a21565b6108358185610a4a565b9350610845818560208601610ae7565b61084e81610c0a565b840191505092915050565b600061086482610a21565b61086e8185610a5b565b935061087e818560208601610ae7565b61088781610c0a565b840191505092915050565b600060a0830160008301516108aa600086018261090f565b5060208301516108bd602086018261090f565b50604083015184820360408601526108d58282610820565b915050606083015184820360608601526108ef8282610820565b91505060808301516109046080860182610802565b508091505092915050565b61091881610ace565b82525050565b61092781610ace565b82525050565b60006020820190508181036000830152610947818461078d565b905092915050565b600060a082019050610964600083018861091e565b610971602083018761091e565b81810360408301526109838186610859565b905081810360608301526109978185610859565b90506109a66080830184610811565b9695505050505050565b60006109ba6109cb565b90506109c68282610b4c565b919050565b6000604051905090565b600067ffffffffffffffff8211156109f0576109ef610bdb565b5b6109f982610c0a565b9050602081019050919050565b6000819050602082019050919050565b600081519050919050565b600081519050919050565b6000602082019050919050565b600082825260208201905092915050565b600082825260208201905092915050565b600082825260208201905092915050565b6000610a7782610ace565b9150610a8283610ace565b9250827fffffffffffffffffffffffffffffffffffffffffffffffffffffffffffffffff03821115610ab757610ab6610b7d565b5b828201905092915050565b60008115159050919050565b6000819050919050565b82818337600083830152505050565b60005b83811015610b05578082015181840152602081019050610aea565b83811115610b14576000848401525b50505050565b60006002820490506001821680610b3257607f821691505b60208210811415610b4657610b45610bac565b5b50919050565b610b5582610c0a565b810181811067ffffffffffffffff82111715610b7457610b73610bdb565b5b80604052505050565b7f4e487b7100000000000000000000000000000000000000000000000000000000600052601160045260246000fd5b7f4e487b7100000000000000000000000000000000000000000000000000000000600052602260045260246000fd5b7f4e487b7100000000000000000000000000000000000000000000000000000000600052604160045260246000fd5b6000601f19601f8301169050919050565b610c2481610ace565b8114610c2f57600080fd5b5056fea26469706673582212203a5afb2af9389be973fe2779a17cdb0d7e154a37f0bd65bdeae962ef267c935464736f6c63430008040033",
  "linkReferences": {},
  "deployedLinkReferences": {}
}